:02000004080AE8
:1000000000000A08B00C0A08000004000600050100
:0800100004026C000000000076
:10001800A00A0A0809480A4908B5884205D0094AC9
:10002800824202D0121A00F01BFD0748074A00213D
:10003800121A00F020FD064808BD00BF000300208A
:10004800840C0A080403002004030020540800203C
:100058005408002070B500F049FB074B074C1E46BA
:10006800E41AA4080025A54204D056F8253098477C
:100078000135F8E770BD00BF540C0A08800C0A0867
:1000880000F0BEBA08B500F0BCFABDE8084000F0C0
:10009800EBBA00F0BBB80078B0FA80F040097047BE
:1000A80001230370704700F019B8000008B5024B2F
:1000B8001B681B6B019308BDD001060808B5024BED
:1000C8001B685B68019308BD9C01060808B5024BD4
:1000D8001B685B69019308BD9C01060808B5024BC3
:1000E8001B681B68019308BDB001060808B5024BE0
:1000F8001B68DB69019308BDB401060808B5024B0B
:100108001B689B69019308BDC401060808B5024B2A
:100118001B685B6A019308BDC401060808B5024B59
:100128001B689B6A019308BDC401060808B5024B09
:100138001B68DB6A019308BDC401060808B5024BB9
:100148001B681B6B019308BDC401060808B5024B68
:100158001B685B6B019308BDC401060808B5024B18
:100168001B681B6C019308BDC401060808B5024B47
:100178001B681B68019308BDD801060808B5024B27
:100188001B681B69019308BDD801060808B5024B16
:100198001B685B69019308BDD801060808B5024BC6
:1001A8001B689B69019308BDD801060808B5024B76
:1001B8001B68DB69019308BDD801060808B5024B26
:1001C8001B681B6A019308BDD801060808B5024BD5
:1001D8001B685B68019308BDA401060808B5024BBB
:1001E8001B685B6E019308BDA401060808B5024BA5
:1001F8001B689B6E019308BDA401060808B5024B55
:100208001B681B69019308BDC801060808B5024BA5
:100218001B685B68019308BDA0010608704710B50C
:100228000446FFF736FF204610BDF8B50F4600F12B
:100238000806051D002416F8011D0A22384600F09C
:1002480082F8AE42044407D0002CF4D02E21384660
:1002580000F04CF80444EEE72046F8BD10B59DF8D0
:10026800084044EA032343EA024242EA01610423C4
:100278004160037510BD000037B5044D05609DF859
:1002880018500095FFF7EAFF03B030BDBC0A0A0812
:10029800014A024B1A607047830B0A0808030020C2
:1002A800F8B506460D468F180024BD420CD03368B9
:1002B80015F8011B9B6830469847002801DB044469
:1002C800F3E7002C08BF04462046F8BD70B5054684
:1002D8000C46084649B100F0D6FB2B680246214679
:1002E8002846BDE87040DB68184770BD03689B6806
:1002F8001847012A98BF0A2230B50B468BB0002157
:100308008DF824100DF12304B3FBF2F505FB12332D
:10031800DBB2092B94BF30333733DBB2214604F804
:1003280001392B46002DEFD1FFF7D0FF0BB030BDC0
:1003380010B422B90368C9B29B6810BC1847D2B27E
:1003480010BCFFF7D6BFFFF7F3BF704710B50446E0
:10035800FFF79FFE204610BD70B504460E46074BBA
:100368000025036040F80C5FFFF7A0FE30462671B9
:10037800FFF7BCFEA560204670BD00BFB40B0A089D
:100388000020FFF723BF0000024B1A68024B1A60D7
:10039800704700BF000300200C0300207047417421
:1003A8007047007CFFF7DABE007CFFF7B7BE007C21
:1003B800FFF7C4BE007CFFF7B9BE007CFFF7C6BEDE
:1003C80010B50446FFF765FE204610BD70B5457CA4
:1003D80004460E4625B9007CFFF7C0FE002805DD5F
:1003E8003146207CBDE87040FFF790BE284670BDBE
:1003F80010B5044608461146002262604FF47A722E
:10040800A260054A20742260012262741A46FFF72E
:1004180075FE204610BD00BFF00B0A0838B50C4D1C
:10042800296811F0010411D12846FFF734FE68B19C
:10043800084A2146084B0948FFF7DAFF2846FFF724
:100448002FFE074A0749054800F0AEF9034838BDB2
:10045800A8030020AC030020240300201003002080
:1004680004030020A5030A0841747047704700215F
:10047800007CFFF793BE0121007CFFF78FBE007C54
:10048800FFF784BE007CFFF779BE38B50446007CD0
:100498000D46FFF77BFE002801DC607C20B1294671
:1004A800207CFFF783FE012038BD007CFFF786BE65
:1004B80010B50446FFF7EDFD204610BD10B5044603
:1004C800002363604FF47A73A360054B08462360EA
:1004D8000123217463741146FFF748FE204610BDBE
:1004E800200C0A0810B504461422002100F0C3FAB3
:1004F800054B20466360054BE36040F201132381FE
:100508008123238210BD00BFB504002034040020DD
:1005180030B50E4D87B001A8FFF7E4FF296811F048
:10052800010410D12846FFF7B6FD60B101AA2146A3
:100538000748FFF7C3FF2846FFF7B2FD054A0649FB
:10054800034800F031F9024807B030BD30040020FC
:10055800B80500200403002075040A0810B50446F5
:100568001422002100F087FA054B20466360054BF2
:10057800E36040F2011323818123238210BD00BF71
:1005880068060020D005002010B50E4C86B001A8E2
:10059800FFF7E4FF2368DB0710D42046FFF77BFD55
:1005A80060B101AA01210848FFF788FF2046FFF73C
:1005B80077FD064A0649044800F0F6F8024806B0F6
:1005C80010BD00BFCC050020540600200403002005
:1005D80075040A087047002211461046FFF70EBE40
:1005E8000348044B044A0549036000F0DDB800BF26
:1005F8006C070020500C0A0804030020DD050A08D7
:100608007047704708B5144B33B1FFF781FF036893
:100618001B699847002816DC104B33B1FFF7FEFE24
:1006280003681B699847002810DC0D4B0BB1AFF32A
:1006380000800C4B7BB1FFF7A7FF03681B69984745
:10064800002806DC08BDAFF30080E5E7AFF30080C3
:10065800EBE7AFF3008008BD0000000000000000D9
:10066800000000000000000008B5FFF7CBFFFFF70F
:100678002DFD014B186008BD780700200248034A89
:100688000349121A00F0ECB900400240044002404D
:10069800800C0A080020704737B5436804460A2BC7
:1006A8000ED0502B1CD1104B1D68CDB1037D4FF4DB
:1006B80000710093C26800F110038068A84707E042
:1006C80000F11003C2684FF400718068FFF7E2FF81
:1006D80030B1002220461146FFF788FD012000E0D6
:1006E800002003B030BD00BF7007002038B50C4CA7
:1006F8000C4D2368AB420C4B0CBF012200221A7030
:1007080002D0FFF7BBFF2560084B1BB1FFF7D6FCF3
:10071800AFF30080BDE8384000210548FFF75EBD13
:10072800004002401E1C279A7407002000000000A9
:10073800A1060A0813B5084C00231A461946009367
:100748002046FFF799FD2046044A054902B0BDE856
:10075800104000F029B800BF7C07002004030020E7
:1007680025020A0870B50C4C0C4E0D4D0021204690
:10077800FFF7F2FD20460B4C3246294600F014F8EC
:1007880001212046FFF7E8FD324629462046BDE80C
:10079800704000F009B800BF94070020040300204F
:1007A80053030A08A40700200B460146184600F028
:1007B80049B90000244B1A68D0075CBF01221A60AF
:1007C800224B1A68D1075CBF01221A60204B1A68B5
:1007D800D2075CBF01221A601E4B1A68D0075CBFA3
:1007E80001221A601C4B1A68D1075CBF01221A60EB
:1007F8001A4B1A68D2075CBF01221A60184B1A6894
:10080800D0075CBF01221A60164B1A68D1075CBF7B
:1008180001221A60144B1A68D2075CBF01221A60C1
:10082800124B1A68D0075CBF01221A60104B1A6875
:10083800D1075CBF01221A600E4B1A68D2075CBF51
:1008480001221A60704700BFE0070020DC07002083
:10085800D8070020D4070020D0070020CC070020AC
:10086800C8070020C4070020C0070020BC070020DC
:10087800B8070020B4070020184B1A68D1075CBFDE
:1008880001221A60164B1A68D2075CBF01221A604F
:10089800144B1A68D0075CBF01221A60124B1A6801
:1008A800D1075CBF01221A60104B1A68D2075CBFDF
:1008B80001221A600E4B1A68D0075CBF01221A6029
:1008C8000C4B1A68D1075CBF01221A600A4B1A68E0
:1008D800D2075CBF01221A60704700BF00080020E1
:1008E800FC070020F8070020F4070020F00700208C
:1008F800EC070020E8070020E4070020184B1A68DE
:10090800D1075CBF01221A60164B1A68D2075CBF78
:1009180001221A60144B1A68D0075CBF01221A60C2
:10092800124B1A68D1075CBF01221A60104B1A6873
:10093800D2075CBF01221A600E4B1A68D0075CBF51
:1009480001221A600C4B1A68D1075CBF01221A6099
:100958000A4B1A68D2075CBF01221A60704700BFB1
:10096800200800201C080020180800201408002077
:10097800100800200C0800200808002004080020A7
:10098800244B1A68D0075CBF01221A60224B1A68F0
:10099800D1075CBF01221A60204B1A68D2075CBFDE
:1009A80001221A601E4B1A68D0075CBF01221A6028
:1009B8001C4B1A68D1075CBF01221A601A4B1A68CF
:1009C800D2075CBF01221A60184B1A68D0075CBFB7
:1009D80001221A60164B1A68D1075CBF01221A60FF
:1009E800144B1A68D2075CBF01221A60124B1A68AE
:1009F800D0075CBF01221A60104B1A68D1075CBF90
:100A080001221A600E4B1A68D2075CBF01221A60D5
:100A1800704700BF500800204C08002048080020FC
:100A280044080020400800203C0800203808002026
:100A380034080020300800202C0800202808002056
:100A48002408002010B5054C13462CB10A4601466F
:100A58000220AFF3008010BD204610BD000000004A
:100A680010B5431E0A44914204D011F8014B03F813
:100A7800014FF8E710BD03460244934202D003F841
:100A8800011BFAE77047034613F8012B002AFBD134
:100A9800181A0138704700001D000A085D000A088E
:100AA80089000A088D000A08000000000000000004
:100AB8000000000033020A0825020A0827020A0873
:100AC80066006C6E00666E00636F64650064657432
:100AD80061696C000D0A00253031307520005D20F9
:100AE800002564002C200028293A2000205B0063A0
:100AF8006F6465203D200025690064657461696C38
:100B080073203D2000626175640053657269616CF1
:100B18000055534253657269616C31007479706590
:100B280000706172616D00636D6400696400686ED5
:100B380064007374726D0066696C74006C766C0086
:100B480061646448616E646C65720072656D6F768D
:100B58006548616E646C657200656E756D48616E9E
:100B6800646C657273004A534F4E53747265616DBD
:100B78004C6F6748616E646C657200617070006EDE
:100B88006F6E6500747261636500696E666F0077E9
:100B980061726E006572726F720070616E696300D7
:100BA800616C6C00000000000000000053030A089C
:100BB80055030A085A00252B3033643A253032751C
:100BC8000025592D256D2D25645425483A254D3A83
:100BD8002553257A0061736374696D650000000010
:100BE8000000000000000000A5030A08C9030A0865
:100BF800D5030A08A9020A08B1030A08BD030A08AE
:100C0800B7030A08C3030A08A7030A08AB030A08BC
:100C1800000000000000000075040A08B9040A0872
:100C280093040A08A9020A088D040A0877040A0826
:100C38007F040A08B3040A0887040A0871040A082A
:100C48000000000000000000DF050A08AF000A08E5
:100C580099020A0889030A0891030A08E9050A089B
:100C68003D070A086D070A08BD070A0881080A082F
:080C780005090A0889090A08B0
:040C80000000000070
:040C8400DD0B0A0872
:100C8800FFFFFFFF00000102030405060708090A29
:100C98000B0C0D0E0F101112131415161718191A24
:080CA8001B1C1D1E1F2028006B
:040CB000785634122C
:04000005080A0018CD
:00000001FF
